{
  "contractName": "SPAMTokenStorage",
  "abi": [
    {
      "constant": true,
      "inputs": [],
      "name": "BASE",
      "outputs": [
        {
          "internalType": "uint256",
          "name": "",
          "type": "uint256"
        }
      ],
      "payable": false,
      "stateMutability": "view",
      "type": "function"
    },
    {
      "constant": true,
      "inputs": [],
      "name": "decimals",
      "outputs": [
        {
          "internalType": "uint8",
          "name": "",
          "type": "uint8"
        }
      ],
      "payable": false,
      "stateMutability": "view",
      "type": "function"
    },
    {
      "constant": true,
      "inputs": [],
      "name": "gov",
      "outputs": [
        {
          "internalType": "address",
          "name": "",
          "type": "address"
        }
      ],
      "payable": false,
      "stateMutability": "view",
      "type": "function"
    },
    {
      "constant": true,
      "inputs": [],
      "name": "incentivizer",
      "outputs": [
        {
          "internalType": "address",
          "name": "",
          "type": "address"
        }
      ],
      "payable": false,
      "stateMutability": "view",
      "type": "function"
    },
    {
      "constant": true,
      "inputs": [],
      "name": "initSupply",
      "outputs": [
        {
          "internalType": "uint256",
          "name": "",
          "type": "uint256"
        }
      ],
      "payable": false,
      "stateMutability": "view",
      "type": "function"
    },
    {
      "constant": true,
      "inputs": [],
      "name": "internalDecimals",
      "outputs": [
        {
          "internalType": "uint256",
          "name": "",
          "type": "uint256"
        }
      ],
      "payable": false,
      "stateMutability": "view",
      "type": "function"
    },
    {
      "constant": true,
      "inputs": [],
      "name": "name",
      "outputs": [
        {
          "internalType": "string",
          "name": "",
          "type": "string"
        }
      ],
      "payable": false,
      "stateMutability": "view",
      "type": "function"
    },
    {
      "constant": true,
      "inputs": [],
      "name": "pendingGov",
      "outputs": [
        {
          "internalType": "address",
          "name": "",
          "type": "address"
        }
      ],
      "payable": false,
      "stateMutability": "view",
      "type": "function"
    },
    {
      "constant": true,
      "inputs": [],
      "name": "rebaser",
      "outputs": [
        {
          "internalType": "address",
          "name": "",
          "type": "address"
        }
      ],
      "payable": false,
      "stateMutability": "view",
      "type": "function"
    },
    {
      "constant": true,
      "inputs": [],
      "name": "spamsScalingFactor",
      "outputs": [
        {
          "internalType": "uint256",
          "name": "",
          "type": "uint256"
        }
      ],
      "payable": false,
      "stateMutability": "view",
      "type": "function"
    },
    {
      "constant": true,
      "inputs": [],
      "name": "symbol",
      "outputs": [
        {
          "internalType": "string",
          "name": "",
          "type": "string"
        }
      ],
      "payable": false,
      "stateMutability": "view",
      "type": "function"
    },
    {
      "constant": true,
      "inputs": [],
      "name": "totalSupply",
      "outputs": [
        {
          "internalType": "uint256",
          "name": "",
          "type": "uint256"
        }
      ],
      "payable": false,
      "stateMutability": "view",
      "type": "function"
    }
  ],
  "bytecode": "0x608060405234801561001057600080fd5b506103ff806100206000396000f3fe608060405234801561001057600080fd5b50600436106100d45760003560e01c806364dd48f51161008157806395d89b411161005b57806395d89b41146101e757806397d63f93146101ef578063ec342ad0146101f7576100d4565b806364dd48f5146101cf5780636fc6407c146101d757806376800592146101df576100d4565b806318160ddd116100b257806318160ddd1461018f57806325240810146101a9578063313ce567146101b1576100d4565b806306fdde03146100d957806311fd8a831461015657806312d43a5114610187575b600080fd5b6100e16101ff565b6040805160208082528351818301528351919283929083019185019080838360005b8381101561011b578181015183820152602001610103565b50505050905090810190601f1680156101485780820380516001836020036101000a031916815260200191505b509250505060405180910390f35b61015e6102aa565b6040805173ffffffffffffffffffffffffffffffffffffffff9092168252519081900360200190f35b61015e6102c6565b6101976102e7565b60408051918252519081900360200190f35b61015e6102ed565b6101b9610309565b6040805160ff9092168252519081900360200190f35b610197610312565b61015e610320565b61019761033c565b6100e1610342565b6101976103b8565b6101976103be565b60018054604080516020600284861615610100027fffffffffffffffffffffffffffffffffffffffffffffffffffffffffffffffff0190941693909304601f810184900484028201840190925281815292918301828280156102a25780601f10610277576101008083540402835291602001916102a2565b820191906000526020600020905b81548152906001019060200180831161028557829003601f168201915b505050505081565b60055473ffffffffffffffffffffffffffffffffffffffff1681565b600354610100900473ffffffffffffffffffffffffffffffffffffffff1681565b60075481565b60045473ffffffffffffffffffffffffffffffffffffffff1681565b60035460ff1681565b69d3c21bcecceda100000081565b60065473ffffffffffffffffffffffffffffffffffffffff1681565b60085481565b600280546040805160206001841615610100027fffffffffffffffffffffffffffffffffffffffffffffffffffffffffffffffff01909316849004601f810184900484028201840190925281815292918301828280156102a25780601f10610277576101008083540402835291602001916102a2565b600b5481565b670de0b6b3a76400008156fea265627a7a72315820655b82b3395c12de0f34c3f0fc2a93777c20ea6c03631b9ddff6eb889f89336664736f6c63430005110032",
  "source": "pragma solidity 0.5.17;\n\nimport \"../lib/SafeMath.sol\";\n\n// Storage for a SPAM token\ncontract SPAMTokenStorage {\n\n    using SafeMath for uint256;\n\n    /**\n     * @dev Guard variable for re-entrancy checks. Not currently used\n     */\n    bool internal _notEntered;\n\n    /**\n     * @notice EIP-20 token name for this token\n     */\n    string public name;\n\n    /**\n     * @notice EIP-20 token symbol for this token\n     */\n    string public symbol;\n\n    /**\n     * @notice EIP-20 token decimals for this token\n     */\n    uint8 public decimals;\n\n    /**\n     * @notice Governor for this contract\n     */\n    address public gov;\n\n    /**\n     * @notice Pending governance for this contract\n     */\n    address public pendingGov;\n\n    /**\n     * @notice Approved rebaser for this contract\n     */\n    address public rebaser;\n\n    /**\n     * @notice Reserve address of SPAM protocol\n     */\n    address public incentivizer;\n\n    /**\n     * @notice Total supply of SPAMs\n     */\n    uint256 public totalSupply;\n\n    /**\n     * @notice Internal decimals used to handle scaling factor\n     */\n    uint256 public constant internalDecimals = 10**24;\n\n    /**\n     * @notice Used for percentage maths\n     */\n    uint256 public constant BASE = 10**18;\n\n    /**\n     * @notice Scaling factor that adjusts everyone's balances\n     */\n    uint256 public spamsScalingFactor;\n\n    mapping (address => uint256) internal _spamBalances;\n\n    mapping (address => mapping (address => uint256)) internal _allowedFragments;\n\n    uint256 public initSupply;\n\n}\n",
  "sourcePath": "/Users/sunnya97/dev/ratchet-finance/spam-protocol/contracts/token/SPAMTokenStorage.sol",
  "compiler": {
    "name": "solc",
    "version": "0.5.17+commit.d19bba13.Linux.g++"
  },
  "schemaVersion": "3.2.3",
  "updatedAt": "2020-08-22T17:59:57.592Z",
  "devdoc": {
    "methods": {}
  },
  "userdoc": {
    "methods": {}
  }
}